:10000000020B55E4F5C5F5C7F5C622020883E4FFE7
:10001000C2AF75F034EFA42432F582E5F03400F578
:1000200083E0D2AF701475F034EFA42432F582E58A
:10003000F03400F5837401F080040FBF07D22275FD
:10004000C780220203EEE4F52F75F034E52FA424D7
:100050009FF582E5F03401F583E06401600302035B
:100060003FE52F75F034A424A0F9740135F0FA7B34
:10007000018B30F53189321206D6FFF46008EF6546
:100080002A600302032BAB30AA31A932900003127D
:1000900006EF241F700302019824FE70030202275A
:1000A000147003020260240460030202FF12000EB7
:1000B0008F2EE52EC3940740030202FF75F034EF44
:1000C000A42433F582E5F03400F5837416F0AB30E8
:1000D000AA31A9329000011206EFFF75F034E52E27
:1000E000A42434F582E5F03400F583EFF075F034A4
:1000F000E52EA42435F582E5F03400F583E52AF0F9
:10010000B4FE030201EBE5295403FF75F0347037A8
:10011000E52EA42436F582E5F03400F5837401F071
:1001200075F034E52EA42437F582E5F03400F5832C
:10013000E4F075F034E52EA42465F582E5F0340092
:10014000F5837406F08048E52EA42436F582E5F0A8
:100150003400F5837402F075F034E52EA42437F5ED
:1001600082E5F03400F58374F0F075F034E52EA4E8
:100170002438F582E5F03400F583EFF075F034E5CE
:100180002EA42465F582E5F03400F5837407F0753C
:100190001D01751E010202FF12000E8F2EE52EC3F7
:1001A000940740030202FF75F034EFA42433F58274
:1001B000E5F03400F5837416F0AB30AA31A9329023
:1001C00000011206EFFF75F034E52EA42434F58209
:1001D000E5F03400F583EFF075F034E52EA4243516
:1001E000F582E5F03400F583E52AF075F034E52E6C
:1001F000A42436F582E5F03400F5837401F075F03F
:1002000034E52EA42437F582E5F03400F58374F14B
:10021000F075F034E52EA42465F582E5F03400F5A0
:10022000837406F00202FF12003FE4FFFE120B0887
:10023000AB30AA31A9329000041206EFFF7D017C99
:1002400000120B1CE4FDFC7F5A120B1C120003ABC6
:1002500030AA31A9329000041206EFF52B0202FFFA
:1002600012000E8F2EE52EC3940740030202FF7585
:10027000F034EFA42433F582E5F03400F5837416EE
:10028000F0AB30AA31A9329000011206EFFF75F0F1
:1002900034E52EA42434F582E5F03400F583EFF044
:1002A00075F034E52EA42435F582E5F03400F583AD
:1002B000E52AF075F034E52EA42436F582E5F03415
:1002C00000F5837402F075F034E52EA42437F5822E
:1002D000E5F03400F58374F4F075F034E52EA424D1
:1002E00038F582E5F03400F583E52BF075F034E560
:1002F0002EA42465F582E5F03400F5837407F0C27E
:10030000AFE52A24F0FFE434FFFEAD2B7C0012079A
:100310001C7D0512072EEF2414F52DE43EF52CC2AA
:100320008CE4F58A758CDCD28CD2AF75F034E52F75
:10033000A4249FF582E5F03401F583E4F0800C05F8
:100340002FE52FC39407500302004990030CE0F4FB
:1003500060030203ED900310E060030203EDF52E4D
:1003600075F034E52EA42432F582E5F03400F583EF
:10037000E06401706CE52D452C706675F034E52E57
:10038000A42432F582E5F03400F5837402F0900382
:100390000CE52EF075F034A42465F582E5F0340008
:1003A000F583E024FFF582E434FFF583E52E75F054
:1003B00034A42433F9740035F0FA7B0178127C03FD
:1003C0007D01AE83AF821206B075F034E52EA42411
:1003D00065F582E5F03400F583E0900311F0020A40
:1003E0004D052EE52EC39407500302036022C0E0A2
:1003F000C0F0C083C082C0D075D008E59A30E170EB
:1004000090019EE004F0900311E0FF90019EE0FE59
:10041000C39F5029EF14B50E0890030DE0F59B80A3
:100420004C74122EF582E43403F583E0FFF59BEE65
:10043000D39400403890030DE02FF0803090030CEF
:10044000E0FFC39407501175F034EFA42432F58215
:10045000E5F03400F583E4F090030C74FFF075349C
:1004600064AF341534EF70F9C2B6439A10539AFD55
:10047000E59A20E0030205D5AF9B900310E01460DD
:100480003B14606014700302050B147003020542F4
:10049000147003020580240560030205CDEF641685
:1004A00060030205D290030BF090030EF090030F4F
:1004B0007404F09003107401F00205D290030BE075
:1004C000FE04F074002EF582E43400F583EFF09022
:1004D000030EE02FF090030F7404F09003107402E9
:1004E000F00205D290030BE0FE04F074002EF582BA
:1004F000E43400F583EFF090030EE02FF090030F4B
:100500007404F090031014F00205D2EFD39400505D
:10051000030205CDEF942F40030205CD90030BE0BD
:10052000FE04F074002EF582E43400F583EFF090C1
:10053000030EE02FF090030F7404F0900310F0020C
:1005400005D290030BE0FE2400F582E43400F5832D
:10055000EFF090030EE02FF0900002E02402FDE4A3
:1005600033FCEEB50D0CE4B50C089003107405F0E7
:10057000800690030BE004F090030F7404F08052A7
:1005800090030EE06F7046900000E0FFF46005EF0E
:10059000652A7039120A1CEFC3940750309000028C
:1005A000E02403F582E433F583EF75F034A424A04E
:1005B000F9740135F0A809FC7D017B017A0079000E
:1005C000AE83AF821206B0752C00752D64900310B7
:1005D000E4F0539AFED0D0D082D083D0F0D0E03275
:1005E000E709F608DFFA8046E709F208DFFA803EFD
:1005F00088828C83E709F0A3DFFA8032E309F608EA
:10060000DFFA8078E309F208DFFA807088828C8351
:10061000E309F0A3DFFA806489828A83E0A3F60805
:10062000DFFA805889828A83E0A3F208DFFA804CDF
:1006300080D280FA80C680D4806980F280338010B6
:1006400080A680EA809A80A880DA80E280CA80331F
:1006500089828A83ECFAE493A3C8C582C8CCC58397
:10066000CCF0A3C8C582C8CCC583CCDFE9DEE78067
:100670000D89828A83E493A3F608DFF9ECFAA9F0E6
:10068000EDFB2289828A83ECFAE0A3C8C582C8CC3C
:10069000C583CCF0A3C8C582C8CCC583CCDFEADE55
:1006A000E880DB89828A83E493A3F208DFF980CCB7
:1006B00088F0EF60010E4E60C388F0ED2402B404B0
:1006C0000050B9F582EB2402B4040050AF23234557
:1006D000822390063073BB010689828A83E0225010
:1006E00002E722BBFE02E32289828A83E49322BBD3
:1006F000010CE58229F582E5833AF583E022500674
:10070000E92582F8E622BBFE06E92582F8E222E529
:100710008229F582E5833AF583E49322EF8DF0A4F4
:10072000A8F0CF8CF0A428CE8DF0A42EFE22BC0021
:100730000BBE0029EF8DF084FFADF022E4CCF875FC
:10074000F008EF2FFFEE33FEEC33FCEE9DEC98400B
:1007500005FCEE9DFE0FD5F0E9E4CEFD22EDF8F5A7
:10076000F0EE8420D21CFEADF075F008EF2FFFED07
:1007700033FD4007985006D5F0F222C398FD0FD5FF
:10078000F0EA22E51C7003020882AE19AD1BED757C
:10079000F003A42412F808E51A26F618EE36F6ED52
:1007A00075F003A42414F806E66404600302087FCD
:1007B000ED75F003A42412F8E6FE08E67802CEC335
:1007C00013CE13D8F9FFED75F003A42412F8E4F664
:1007D00008F6ED75F003A42414F8E4F6ED25E02402
:1007E00025F8A60608A60774102DF8C000E6FC251B
:1007F000E0D000F6ED7026C3EF94C8EE94004009F7
:10080000D3EF940EEE94014025C3EF94E0EE9401F3
:100810004014D3EF944EEE940240138009BD010EB4
:10082000C3EE9402400874102DF8E64401F67410EB
:100830002DF8E6540FFFBF0F1A7401A805088002B7
:10084000C333D8FC4229ED25E02420F8760708764A
:10085000D0802CEF7029ED25E02420F8E6FE08E694
:100860004E6008741D2DF8E6B401147401A8050843
:100870008002C333D8FCF45229741D2DF8E4F6E449
:10088000F51C22C0E0C083C082C0D075D000C28CED
:10089000758A00758CDCD28C53BCEFE51C705CAFA4
:1008A000BDF5198F1AE51AAE197802C333CE33CECF
:1008B000D8F9F51A8E19E5BE5403251AF51AE43550
:1008C00019F519851F1B751C01E51FB40105751F5E
:1008D000008002051FE51F700553BCF8800BE51F63
:1008E000B4010653BCF843BC010000000000000046
:1008F0000043BC800000000043BC08D3E52D9400F9
:10090000E52C94004008E52D152D7002152CE4FF10
:10091000EF25E02420F8E6FC08E6D39400EC9400F0
:10092000400DEF25E02420F808E616187001160F98
:10093000BF02DD900310E0601690030FE0D3940037
:100940004003E014F090030FE07004900310F0D027
:10095000D0D082D083D0E032E4900310F090030F27
:10096000F090030BF090030EF0900311F090019EB5
:10097000F0FF75F034EFA42432F582E5F03400F591
:1009800083E4F075F034EFA4249FF582E5F03401A0
:10099000F583E4F00FBF07DA90030C74FFF0020A4E
:1009A0009AE4F51FF51CF529F51DF51EFFEF75F00E
:1009B00003A42412F8E4F608F6EF75F003A4241457
:1009C000F8E4F6EF25E02425F8E4F608F674102F95
:1009D000F8E4F6EF25E02420F8E4F608F60FBF026D
:1009E000CC020B61E4FFFEADA07CFFDCFEEDB5A008
:1009F000070FBF00010E8005E4FEFFADA0C3EF941A
:100A000008EE940040E3EDF4F52A9410400AE52A3C
:100A1000F46005E52AB4FE03752AFE22E4FFC2AFA6
:100A200075F034EFA4249FF582E5F03401F583E0FE
:100A3000D2AF701475F034EFA4249FF582E5F03442
:100A400001F5837401F080040FBF07D2227533646F
:100A5000539AEF0000D2B6AF331533EF70F9E4903C
:100A6000030DF090019EF0E02412F582E43403F5CA
:100A700083E0F59B22538E7F5389F0438901E4F58F
:100A80008A758CDCC28DD2A943B702C2B9D28C530D
:100A9000BCF80000000043BC082243A210759A5025
:100AA000538EF7538EFB759CFA438E1043AF015360
:100AB000B6FE43B501C2B6000000002212003FE4BA
:100AC000FFFE120AF2BF5A0B7F017E00120AF28F5C
:100AD0002B8003E4F52B020003759103E4F5927576
:100AE0009D03F595F596F5B175B240F5B3F5B4C231
:100AF000B622AD07AC0675C5018CC38DC475C65A48
:100B000075C6A50000AFC222AD07AC0675C5038C43
:100B1000C38DC475C65A75C6A5000022AB0775C53E
:100B2000028CC38DC48BC275C65A75C6A50000223F
:100B3000120B43D2AF75C13612078312004675C13E
:100B40003680F5120AD91209E4120ABC12095812A9
:100B500009A1020A75787FE4F6D8FD758134020B8D
:0A0B60003075BC80C2AD53A2FB2229
:00000001FF
