:10000000020B17E4F5C5F5C7F5C622020849E4FF5F
:10001000C2AF75F034EFA42432F582E5F03400F578
:1000200083E0D2AF701475F034EFA42432F582E58A
:10003000F03400F5837401F080040FBF07D22275FD
:10004000C780220203C1E4F52D75F034E52DA42408
:100050009FF582E5F03401F583E06401600302035B
:1000600012E52D75F034A424A0F9740135F0FA7B63
:10007000018B2EF52F89301206A9FFF46008EF6579
:100080002860030202FEAB2EAA2FA93090000312B3
:1000900006C2241F700302016B24FE70030201FAE2
:1000A000147003020233240460030202D212000E11
:1000B0008F2CE52CC3940740030202D275F034EF75
:1000C000A42433F582E5F03400F5837416F0AB2EEA
:1000D000AA2FA9309000011206C2FF75F034E52C5A
:1000E000A42434F582E5F03400F583EFF075F034A4
:1000F000E52CA42435F582E5F03400F583E528F0FD
:10010000B4FE030201BEE5275403FF75F0347024EA
:10011000E52CA42436F582E5F03400F5837401F073
:1001200075F034E52CA42437F582E5F03400F5832E
:10013000E40201E3E52CA42436F582E5F03400F571
:10014000837402F075F034E52CA42437F582E5F0D1
:100150003400F58374F0F075F034E52CA42438F500
:1001600082E5F03400F583EF0202BE12000E8F2C00
:10017000E52CC3940740030202D275F034EFA424A7
:1001800033F582E5F03400F5837416F0AB2EAA2F18
:10019000A9309000011206C2FF75F034E52CA424AA
:1001A00034F582E5F03400F583EFF075F034E52C9A
:1001B000A42435F582E5F03400F583E528F075F0E8
:1001C00034E52CA42436F582E5F03400F58374017F
:1001D000F075F034E52CA42437F582E5F03400F511
:1001E0008374F1F075F034E52CA42465F582E5F014
:1001F0003400F5837406F00202D212003FE4FFFEE1
:10020000120ACAAB2EAA2FA9309000041206C2FF10
:100210007D017C00120ADEE4FDFC7F5A120ADE1228
:100220000003AB2EAA2FA9309000041206C2F529B4
:100230000202D212000E8F2CE52CC3940740030259
:1002400002D275F034EFA42433F582E5F03400F5E2
:10025000837416F0AB2EAA2FA9309000011206C2AB
:10026000FF75F034E52CA42434F582E5F03400F574
:1002700083EFF075F034E52CA42435F582E5F034F5
:1002800000F583E528F075F034E52CA42436F582DA
:10029000E5F03400F5837402F075F034E52CA42405
:1002A00037F582E5F03400F58374F4F075F034E549
:1002B0002CA42438F582E5F03400F583E529F075A7
:1002C000F034E52CA42465F582E5F03400F5837460
:1002D00007F0C2AFE52824F0FFE434FFFEAD297C2F
:1002E000001206EF7D05120701EF2414F52BE43E02
:1002F000F52AC28CE4F58A758CDCD28CD2AF75F00D
:1003000034E52DA4249FF582E5F03401F583E4F073
:10031000800C052DE52DC39407500302004990037E
:100320000CE0F460030203C0900310E060030203DA
:10033000C0F52C75F034E52CA42432F582E5F034B8
:1003400000F583E06401706CE52B452A706675F05A
:1003500034E52CA42432F582E5F03400F5837402F0
:10036000F090030CE52CF075F034A42465F582E5DB
:10037000F03400F583E024FFF582E434FFF583E5F3
:100380002C75F034A42433F9740035F0FA7B01782D
:10039000127C037D01AE83AF8212068375F034E5D3
:1003A0002CA42465F582E5F03400F583E090031178
:1003B000F0020A0F052CE52CC39407500302033307
:1003C00022C0E0C0F0C083C082C0D075D008E59ADA
:1003D00030E17090019EE004F0900311E0FF900185
:1003E0009EE0FEC39F5029EF14B50E0890030DE068
:1003F000F59B804C74122EF582E43403F583E0FF04
:10040000F59BEED39400403890030DE02FF0803040
:1004100090030CE0FFC39407501175F034EFA4244F
:1004200032F582E5F03400F583E4F090030C74FFBC
:10043000F0753264AF321532EF70F9C2B6439A10DC
:10044000539AFDE59A20E0030205A8AF9B900310A4
:10045000E014603B1460601470030204DE14700347
:10046000020515147003020553240560030205A05C
:10047000EF641660030205A590030BF090030EF0E5
:1004800090030F7404F09003107401F00205A5901E
:10049000030BE0FE04F074002EF582E43400F583D3
:1004A000EFF090030EE02FF090030F7404F0900330
:1004B000107402F00205A590030BE0FE04F0740036
:1004C0002EF582E43400F583EFF090030EE02FF078
:1004D00090030F7404F090031014F00205A5EFD3FD
:1004E000940050030205A0EF942F40030205A09052
:1004F000030BE0FE04F074002EF582E43400F58373
:10050000EFF090030EE02FF090030F7404F09003CF
:1005100010F00205A590030BE0FE2400F582E43400
:1005200000F583EFF090030EE02FF0900002E0243E
:1005300002FDE433FCEEB50D0CE4B50C089003109D
:100540007405F0800690030BE004F090030F740430
:10055000F0805290030EE06F7046900000E0FFF4D0
:100560006005EF652870391209DEEFC3940750303B
:10057000900002E02403F582E433F583EF75F03454
:10058000A424A0F9740135F0A809FC7D017B017A4F
:10059000007900AE83AF82120683752A00752B6442
:1005A000900310E4F0539AFED0D0D082D083D0F0E4
:1005B000D0E032E709F608DFFA8046E709F208DF03
:1005C000FA803E88828C83E709F0A3DFFA8032E369
:1005D00009F608DFFA8078E309F208DFFA8070880C
:1005E000828C83E309F0A3DFFA806489828A83E046
:1005F000A3F608DFFA805889828A83E0A3F208DF35
:10060000FA804C80D280FA80C680D4806980F280E3
:1006100033801080A680EA809A80A880DA80E28009
:10062000CA803389828A83ECFAE493A3C8C582C85E
:10063000CCC583CCF0A3C8C582C8CCC583CCDFE9C8
:10064000DEE7800D89828A83E493A3F608DFF9EC64
:10065000FAA9F0EDFB2289828A83ECFAE0A3C8C5EF
:1006600082C8CCC583CCF0A3C8C582C8CCC583CC16
:10067000DFEADEE880DB89828A83E493A3F208DF85
:10068000F980CC88F0EF60010E4E60C388F0ED2455
:1006900002B4040050B9F582EB2402B4040050AF58
:1006A000232345822390060373BB010689828A8334
:1006B000E0225002E722BBFE02E32289828A83E421
:1006C0009322BB010CE58229F582E5833AF583E0AC
:1006D000225006E92582F8E622BBFE06E92582F8CB
:1006E000E222E58229F582E5833AF583E49322EF5D
:1006F0008DF0A4A8F0CF8CF0A428CE8DF0A42EFE0F
:1007000022BC000BBE0029EF8DF084FFADF022E487
:10071000CCF875F008EF2FFFEE33FEEC33FCEE9DC6
:10072000EC984005FCEE9DFE0FD5F0E9E4CEFD22ED
:10073000EDF8F5F0EE8420D21CFEADF075F008EF78
:100740002FFFED33FD4007985006D5F0F222C398F5
:10075000FD0FD5F0EA22E51C7003020848AE19AD82
:100760001BED75F003A42412F808E51A26F618EE1E
:1007700036F6ED75F003A42414F806E6640460036D
:10078000020845ED75F003A42412F8E6FE08E678A9
:1007900002CEC313CE13D8F9FFED75F003A42412D3
:1007A000F8E4F608F6ED75F003A42414F8E4F6ED89
:1007B00025E02423F8A60608A60774102DF8C0002B
:1007C000E6FC25E0D000F6ED7026C3EF94C8EE9469
:1007D000004009D3EF940EEE94014025C3EF94E05E
:1007E000EE94014014D3EF944EEE9402401380092E
:1007F000BD010EC3EE9402400874102DF8E64401CA
:10080000F674102DF8E6540FFFBF0F1A7401A805F7
:10081000088002C333D8FC4227ED25E0241EF87679
:10082000040876B0801FEF701CED25E0241EF8E66A
:10083000FE08E64E700FAF0504A807088002C33318
:10084000D8FCF45227E4F51C22C0E0C083C082C06B
:10085000D075D000C28C758A00758CDCD28C53BCEC
:10086000EFE51C705CAFBDF5198F1AE51AAE19786B
:1008700002C333CE33CED8F9F51A8E19E5BE540330
:10088000251AF51AE43519F519851D1B751C01E5A6
:100890001DB40105751D008002051DE51D70055381
:1008A000BCF8800BE51DB4010653BCF843BC010045
:1008B0000000000000000043BC800000000043BCBA
:1008C00008D3E52B9400E52A94004008E52B152B6E
:1008D0007002152AE4FFEF25E0241EF8E6FC08E686
:1008E000D39400EC9400400DEF25E0241EF808E6B8
:1008F00016187001160FBF02DD900310E06016900D
:10090000030FE0D394004003E014F090030FE07075
:1009100004900310F0D0D0D082D083D0E032E490A5
:100920000310F090030FF090030BF090030EF09083
:100930000311F090019EF0FF75F034EFA42432F51E
:1009400082E5F03400F583E4F075F034EFA4249FE1
:10095000F582E5F03401F583E4F00FBF07DA900388
:100960000C74FFF0020A5CE4F51DF51CF527FFEF9F
:1009700075F003A42412F8E4F608F6EF75F003A46A
:100980002414F8E4F6EF25E02423F8E4F608F674DE
:10099000102FF8E4F6EF25E0241EF8E4F608F60F31
:1009A000BF02CC020B23E4FFFEADA07CFFDCFEED1A
:1009B000B5A0070FBF00010E8005E4FEFFADA0C388
:1009C000EF9408EE940040E3EDF4F5289410400A0B
:1009D000E528F46005E528B4FE037528FE22E4FF4F
:1009E000C2AF75F034EFA4249FF582E5F03401F531
:1009F00083E0D2AF701475F034EFA4249FF582E544
:100A0000F03401F5837401F080040FBF07D2227522
:100A10003164539AEF0000D2B6AF311531EF70F95F
:100A2000E490030DF090019EF0E02412F582E4348E
:100A300003F583E0F59B22538E7F5389F0438901B0
:100A4000E4F58A758CDCC28DD2A943B702C2B9D253
:100A50008C53BCF80000000043BC082243A2107570
:100A60009A50538EF7538EFB759CFA438E1043AF0A
:100A70000153B6FE43B501C2B600000000221200C9
:100A80003FE4FFFE120AB4BF5A0B7F017E00120A38
:100A9000B48F29800375291E020003759103E4F5C4
:100AA00092759D03F595F596F5B175B240F5B3F5E0
:100AB000B4C2B622AD07AC0675C5018CC38DC47532
:100AC000C65A75C6A50000AFC222AD07AC0675C5F3
:100AD000038CC38DC475C65A75C6A5000022AB072A
:100AE00075C5028CC38DC48BC275C65A75C6A50068
:100AF0000022120B05D2AF75C136120756120046FE
:100B000075C13680F5120A9B1209A6120A7E1209D7
:100B10001E120967020A37787FE4F6D8FD75813224
:0C0B2000020AF275BC80C2AD53A2FB2299
:00000001FF
